S01C000053534D5F4549434845525F444946465F4C4F434B2E7372656306
S315080000000040022011690008DD660008E566000860
S3150800001000000000000000000000000000000000D2
S31508000020000000000000000000000000B1410108C7
S315080000300000000000000000D1420108F520010878
S31508000040616900086169000861690008616900085A
S31508000050616900086169000861690008616900084A
S31508000060ED660008616900086169000861690008B1
S31508000070616900086169000861690008616900082A
S315080000806169000861690008616900080567000878
S31508000090616900081D6700084D6700086169000866
S315080000A061690008616900086169000861690008FA
S311080000B0716700086169000861690008B2
S315080000C010B5064C2378002B07D1054B002B02D020
S315080000D0044800E000BF0123237010BDF803002088
S315080000E000000000F09C0108044B10B5002B03D05B
S315080000F00349044800E000BF10BDC04600000000E8
S31508000100FC030020F09C01080023C25C0133002A8E
S31508000110FBD1581E7047000002B4714649084900D1
S31508000120095C49008E4402BC7047C04603B4714658
S31508000130490840004900095E49008E4403BC7047DF
S31508000140002243088B4274D303098B425FD3030A08
S315080001508B4244D3030B8B4228D3030C8B420DD31B
S31508000160FF22090212BA030C8B4202D312120902A9
S3150800017065D0030B8B4219D300E0090AC30B8B42E7
S3150800018001D3CB03C01A5241830B8B4201D38B0395
S31508000190C01A5241430B8B4201D34B03C01A52413A
S315080001A0030B8B4201D30B03C01A5241C30A8B427D
S315080001B001D3CB02C01A5241830A8B4201D38B0268
S315080001C0C01A5241430A8B4201D34B02C01A52410C
S315080001D0030A8B4201D30B02C01A5241CDD2C3097E
S315080001E08B4201D3CB01C01A524183098B4201D3FA
S315080001F08B01C01A524143098B4201D34B01C01AE5
S31508000200524103098B4201D30B01C01A5241C3085C
S315080002108B4201D3CB00C01A524183088B4201D3CB
S315080002208B00C01A524143088B4201D34B00C01AB7
S315080002305241411A00D20146524110467047FFE723
S3150800024001B5002000F0F0F802BDC0460029F7D03D
S3150800025076E7704703460B437FD4002243088B4258
S3150800026074D303098B425FD3030A8B4244D3030B2F
S315080002708B4228D3030C8B420DD3FF22090212BAF4
S31508000280030C8B4202D31212090265D0030B8B4270
S3150800029019D300E0090AC30B8B4201D3CB03C01A5A
S315080002A05241830B8B4201D38B03C01A5241430B35
S315080002B08B4201D34B03C01A5241030B8B4201D325
S315080002C00B03C01A5241C30A8B4201D3CB02C01A90
S315080002D05241830A8B4201D38B02C01A5241430A08
S315080002E08B4201D34B02C01A5241030A8B4201D3F7
S315080002F00B02C01A5241CDD2C3098B4201D3CB019E
S31508000300C01A524183098B4201D38B01C01A52414C
S3150800031043098B4201D34B01C01A524103098B4250
S3150800032001D30B01C01A5241C3088B4201D3CB003B
S31508000330C01A524183088B4201D38B00C01A52411E
S3150800034043088B4201D34B00C01A5241411A00D2CE
S3150800035001465241104670475DE0CA0F00D0494237
S31508000360031000D34042534000229C4603098B42A7
S315080003702DD3030A8B4212D3FC22890112BA030A2F
S315080003808B420CD3890192118B4208D389019211B1
S315080003908B4204D389013AD0921100E08909C30936
S315080003A08B4201D3CB01C01A524183098B4201D338
S315080003B08B01C01A524143098B4201D34B01C01A23
S315080003C0524103098B4201D30B01C01A5241C3089B
S315080003D08B4201D3CB00C01A524183088B4201D30A
S315080003E08B00C01A5241D9D243088B4201D34B0025
S315080003F0C01A5241411A00D20146634652415B1067
S31508000400104601D34042002B00D549427047634647
S315080004105B1000D3404201B5002000F005F802BD8C
S315080004200029F8D016E770477047C0468446100082
S3150800043062468C461900634600E0C0461FB501F0C7
S315080004403FFF002801D40021C8421FBD10B501F0A6
S3150800045083FE4042013010BD10B501F031FF00287F
S3150800046001DB002010BD012010BDC04610B501F00B
S3150800047027FF002801DD002010BD012010BDC04661
S3150800048010B501F0ADFE002801DC002010BD0120EA
S3150800049010BDC04610B501F0A3FE002801DA002001
S315080004A010BD012010BDC046844608006146FFE71E
S315080004B01FB500F061FC002801D40021C8421FBD09
S315080004C010B500F0E9FB4042013010BD10B500F050
S315080004D053FC002801DB002010BD012010BDC046DA
S315080004E010B500F049FC002801DD002010BD0120F0
S315080004F010BDC04610B500F0F7FB002801DC00204F
S3150800050010BD012010BDC04610B500F0EDFB002857
S3150800051001DA002010BD012010BDC046002B11D104
S31508000520002A0FD1002900D1002802D00021C94392
S31508000530080007B4024802A14018029003BDC0464D
S31508000540E9FEFFFF03B4684601B5029800F0E6F835
S31508000550019B9E4602B00CBC7047C0469E2110B552
S31508000560C905041CFFF7D0FF002803D1201C00F0A2
S31508000570AFFE10BD9E21201CC90500F045FC00F009
S31508000580A7FE80231B069C466044F2E770B500224E
S315080005900C4B04000D00FFF77DFF002804D1200056
S315080005A0290002F00DFE70BD064B0022200029002E
S315080005B002F0DAF902F004FE80231B069C4660442A
S315080005C0F1E7C0460000E04170B5002200230400B0
S315080005D00D00FFF741FF002808D12000290000F090
S315080005E02FF802000B001000190070BD80231B06AF
S315080005F0E918200000F024F8002342428B41F2E774
S3150800060070B502F06BFE00220B4B0D00040001F0E2
S31508000610C5FEFFF7BBFF060002F03CFE0022074BB3
S3150800062001F0BCFE02000B002000290002F09CF934
S31508000630FFF7ACFF310070BD0000F03D0000F0414F
S3150800064070B500220B4B0D00040001F0A7FEFFF762
S315080006509DFF060002F01EFE0022074B01F09EFEDB
S3150800066002000B002000290002F07EF9FFF78EFF3A
S31508000670310070BD0000F03D0000F04170B5060085
S31508000680080002F0D9FD0022064B01F087FE0D0096
S315080006900400300002F0FEFD2B00220000F07EFE72
S315080006A070BDC0460000F0418023D0B59B0304000E
S315080006B00800994201D3630511D102F0EBFD00222F
S315080006C00A4B01F06BFE06000F00200002F0E2FD67
S315080006D032003B0000F062FE02F048FED0BDE30A9D
S315080006E08024DB0224011C43E7E7C0460000F041F2
S315080006F070B50600080002F0CDFD0022064B01F099
S315080007004DFE0D000400300002F0C4FD2B0022004F
S3150800071000F044FE70BDC0460000F041F0B55746F3
S315080007204E464546DE46E0B504000D00924699461B
S3150800073083B08B4230D82DD04946504602F0B6FEDB
S3150800074029000600200002F0B1FE331A9846203B25
S3150800075034D49B4653465A46934042461F00534656
S3150800076093401E00AF423BD8AF4200D179E05B46CA
S31508000770A41BBD41002B00DA76E00022002300927C
S31508000780019301235A46934001930123424693401D
S31508000790009329E08242CFD90022002300920193D8
S315080007A00C9B002B01D01C605D600098019903B07A
S315080007B0F0BCBB46B246A946A046F0BD42469B469B
S315080007C020239B1A5246DA40414613004A468A407D
S315080007D0170042461F43534693401E00AF42C3D9F3
S315080007E000220023009201934346002BD8D0FB0732
S315080007F072081A4346467B080EE0AB4201D1A24274
S315080008000CD8A41A9D41012024196D410021013EEE
S3150800081024184D41002E06D0AB42EED9013E2419CC
S315080008206D41002EF8D1009801995B46001969417F
S31508000830002B24DB2B005A464446D3402A00E240CC
S315080008401C005B461500002B2ADB26009E40330061
S3150800085026004746BE403200801A99410090019111
S315080008609EE7A342BCD882E74246202300219B1A72
S315080008700022009101920122DA40019285E7424660
S3150800088020239B1A2A0046469A402300F3404446F2
S3150800089013432A00E2401C005B461500002BD4DAFD
S315080008A042462F002023260097409B1ADE403B0035
S315080008B03343CDE7F8B54B025A0A94464A00C90FA6
S315080008C0CE4647468946450046022D0E120E80B58D
S315080008D09909770AC40FB609AB1A4C4520D0002BE4
S315080008E00CDD002A34D100292AD05A1E012B00D14A
S315080008F08FE0FF2B00D1CDE013002FE0002B60D056
S31508000900531B002D00D0EEE0002E00D13EE15C1E08
S31508000910012B00D16BE1FF2B00D1B9E02300E7E002
S31508000920002B00DCA4E0002A69D0FF2D00D1B1E03D
S315080009308022D20411431B2B00DCE9E02B0005368C
S31508000940F708FF2B00D1A5E07A02520AD8B230E0A8
S31508000950FF2D00D19EE08022D204114301201B2BDB
S3150800096008DC08002022D840D31A99400B005A1EEA
S3150800097093411843361A730100D471E0B601B709DA
S31508000980380002F075FD3B000538834085424DDD91
S31508000990B44E2D1A1E405A0768D00F221340042B56
S315080009A064D00436730161D5681CFE2D54D1FF202E
S315080009B00022C0051043E4072043C0BCB946B04630
S315080009C0F8BDFE229046681C0200404610426BD1D4
S315080009D0002D00D0DDE0002E00D102E10029B3D0C1
S315080009E08022771AD204174200D136E14C468E1B74
S315080009F061D00120164230D10023F708A4E7002968
S31508000A009ED05A1E012B00D1CAE0FF2B42D01300FC
S31508000A1091E7711A4B0100D4D1E08F01BF09380064
S31508000A2002F026FD3B000538834001252022401BA5
S31508000A300130121A1E009340C6405A1E93411E43A7
S31508000A4039D0730700D11BE10F2300253340042B4F
S31508000A50A7D1012072017CD5C0B2B201520AA8E71B
S31508000A60730703D00F233340042B9AD12B0067E773
S31508000A70002B23D0531B002D7BD1002E00D186E0FE
S31508000A805D1E012B00D18BE0FF2B02D02B0075E0F9
S31508000A904C466746002F00D189E78022D2033A43A5
S31508000AA05202FF20520A84E7771A7B016BD4002F83
S31508000AB000D065E70024002000227AE7FE226B1C9E
S31508000AC01A4249D1002D00D09FE0002E00D1BAE08D
S31508000AD0002900D1CFE07218530100D4CDE092016D
S31508000AE00120520A65E7FF2AD2D08020C0040643B7
S31508000AF001201B2B08DC30002024D840E31A9E4036
S31508000B0033005C1EA34118434C4615000E1A32E703
S31508000B1008002022D840D31A99400B005A1E934148
S31508000B200343F61873019BD50135FF2D00D13EE727
S31508000B3001234D49720833400A401A4316005307E9
S31508000B4004D00F231340042B00D02AE7730100D5E5
S31508000B502AE72B00F708F7E6FF2B00D127E77118DD
S31508000B6049084A072FD00F220A40042A2BD00E1D07
S31508000B70E6E6FF2A8DD08020C00406431B2B24DD21
S31508000B8013004E1DDCE64C468F1BF9E64C460E005C
S31508000B90D6E6002E49D1002968D067464C467CE740
S31508000BA07018430174D5304940080140430709D0FD
S31508000BB00F230340042B05D002230E1DC0E6012394
S31508000BC0CF08C1E60223CF08BEE620253000D8406C
S31508000BD0EB1A9E4033005D1EAB41034315005E18B9
S31508000BE0A0E7002900D165E74C466746ACE68F1BAF
S31508000BF07B012ED5BF01BF09380002F039FC3B0046
S31508000C00053883404C46013510E7002E00D140E7F1
S31508000C10002900D141E78023DB039F4200D23CE74D
S31508000C209C4500D339E7674637E7002900D134E702
S31508000C308023DB039F4200D22FE79C4500D32CE795
S31508000C404C46674629E7002900D134E70023CF0838
S31508000C507AE64C460123FF0876E6002F00D129E7FD
S31508000C60FF0871E6FFFFFFFBFFFFFF7D80220024E0
S31508000C70FF20D2039DE6002366E60023D70863E635
S31508000C800120720100D5E7E631000023CF085BE6B4
S31508000C900123C70858E6C04670B542004E024C000C
S31508000CA045026D0A120EC30F760A240EC90FFF2AD3
S31508000CB010D0FF2C0CD00120A2420AD1B54208D18F
S31508000CC08B420FD0002A04D12800431E984100E029
S31508000CD0012070BD0120FF2CFBD13543F9D14B40D3
S31508000CE01800F6E70020F4E730B5420044024D024A
S31508000CF0C30F4800640A120E6D0A000EC90FFF2AB8
S31508000D0018D0FF280AD0002A1ED100280AD1002DA3
S31508000D1029D0002C2DD14800013830BD002D25D111
S31508000D20002A01D1002CF6D08B4219D001205B4253
S31508000D301843F2E7002C19D1FF28F7D1002D15D159
S31508000D4000208B42F2D1E8E70028EFD08B42EDD1A4
S31508000D508242EBDC04DBAC42E8D80020AC42DCD2B1
S31508000D6058000138D9E7002CD7D0DFE702204042E7
S31508000D70D3E78B42DAD1EEE730B5420044024D02A2
S31508000D80C30F4800640A120E6D0A000EC90FFF2A27
S31508000D9017D0FF280AD0002A1BD100280AD1002D17
S31508000DA01DD0002C2DD14800013811E0002D0ED1A0
S31508000DB0002A01D1002CF6D08B420CD158000138FC
S31508000DC006E0002C03D1FF2805D1002D15D00220FE
S31508000DD030BD002806D101205B421843F8E7002CF5
S31508000DE0F6D0F8E78B42F6D18242F4DCE6DBAC4279
S31508000DF0F1D80020AC42EBD2E0E700208B42EAD1E2
S31508000E00E6E78B42E7D1F2E7F8B54746CE46430216
S31508000E1080B55F0A9B0945004A009C464B02C40FF1
S31508000E20CE0F2D0E580A120E9909FF2A6BD00123F0
S31508000E305E40AB1AB4424BD0002B00DCFFE0002A20
S31508000E4000D188E0FF2D00D1EFE08022D2041143C3
S31508000E5001201B2B08DC08002022D840D31A994011
S31508000E600B005A1E9341184363461B1A9C46634659
S31508000E705B0100D4CDE063469F01BF09380002F04C
S31508000E80F7FA3B0005388340854200DCA2E0B74A02
S31508000E902D1A1A4094465A0700D1C3E00F22134070
S31508000EA0042B00D1BEE004239846C44463465B0184
S31508000EB000D4B7E0681CFE2D00D0A5E0FF20002274
S31508000EC0C0051043E4072043C0BCB946B046F8BD88
S31508000ED0002B00DCEBE1002A46D0FF2D00D1A4E070
S31508000EE08022D20411431B2B00DCFBE00523984625
S31508000EF02B00C4446246D708FF2B00D195E07A023E
S31508000F00520AD8B2DCE72B00FF3B9946002918D1D4
S31508000F1001235E40B44200D1CAE04B46002B2DD0D7
S31508000F20002D00D03CE1FF236446002C00D15FE190
S31508000F305D1E012B00D174E13400FF2B74D02B0009
S31508000F4003E1B44200D19CE0002B17D0002DEAD073
S31508000F50070034006CE00029CCD05A1E012B2BD098
S31508000F60FF2B62D0130073E70029C3D05A1E012B4A
S31508000F7000D11EE1FF2B58D01300B4E7FE226B1CEC
S31508000F801A420DD1002D60D06346002B00D020E117
S31508000F90002900D028E180220024FF20D2038FE711
S31508000FA063465F1A7B0100D5FEE0002F00D065E797
S31508000FB000240020002283E76346591A4B0100D417
S31508000FC019E18F01BF09380002F052FA3B000538D3
S31508000FD0834001252022401B0130121A1900934034
S31508000FE0C1405A1E934119438C460B1EE1D05B073C
S31508000FF000D152E10F2300250B40042B00D052E705
S3150800100001204A0100D492E0C0B263469A01520A0E
S3150800101056E763465B0705D00F2362461340042B49
S3150800102000D040E72B0065E70700002F00D145E711
S315080010308022D2033A435202FF20520A40E7002B8D
S3150800104079D1FE226B1C1A42AAD16346002B00D125
S31508001050F5E0002900D1D1E05F1A8023DB041F42A6
S3150800106000D10EE1624601248A1A944600203440D3
S31508001070002A00D124E701201A42C6D10023D70846
S315080010803DE7002B17D0002D00D0AFE0FF236546C3
S31508001090002D00D1ADE05E1E012B00D189E0FF2BAB
S315080010A0C2D01B2E00DCABE04B1D9C46130021E78B
S315080010B04B46002B70D1FE226B1C1A425ED1002DC6
S315080010C000D0C3E06346002B00D1D0E0002900D150
S315080010D094E00A006244530100D4D8E0920101204A
S315080010E0520AEDE608002022D840D31A99400B0090
S315080010F05A1E934103439C4463465B0189D50135D7
S31508001100FF2D00D1DAE66246012319491340520839
S315080011100A401A43130094465B0704D00F23134072
S31508001120042B00D0BFE663465B0100D5C2E66346E2
S31508001130DF082B00E3E6531B002D00D1F4E68020E0
S315080011406446C0040443A446340001201B2B09DC72
S3150800115020256046D840EB1A65469D402B005D1E4B
S31508001160AB4118430B1A9C46150080E6FFFFFFFBB0
S31508001170FFFFFF7DFE226B1C1342A3D0FF2B00D17D
S315080011809CE6614449084A0749D00F220A40042AC6
S3150800119045D00A1D9446ADE6002D00D176E78DE6CA
S315080011A03400FF2000228BE663460124CF1A344020
S315080011B064E661444B016DD548084449014043073C
S315080011C02CD00F230340042B28D00B1D9C4602234A
S315080011D090E6002900D12BE78023DB039F4200D24B
S315080011E026E7984200D323E70124344007001FE787
S315080011F034008C467EE60123CF0880E600237EE68F
S3150800120020206546801B854063462800F340451E1E
S31508001210A84103439C4615008C446DE70223CF087A
S315080012206DE60F1B7B0128D5BF01BF09380002F008
S315080012301FF93B000538834034000125CAE600291A
S3150800124000D1B5E601240700344058E66346002B72
S3150800125000D1E9E6002900D1EAE68023DB039F42B4
S3150800126000D2E5E6984200D3E2E60700E0E6002968
S3150800127000D19EE60023CF0841E634000123FF088B
S315080012803DE6002F00D193E60023FF0837E600234A
S31508001290D70834E60123CF0831E680220B00D204B2
S315080012A001201340114200D0AEE6CF0827E6002BF6
S315080012B000D15FE7561B002D01D13300E7E68023F6
S315080012C06046DB0418438446EBE6C046FFFFFF7D15
S315080012D041024200C30F490A0020120E7E2A03DD8E
S315080012E09D2A02DD094A98187047802000040143A8
S315080012F0952A07DC9620821AD1404842002BF3D162
S315080013000800F1E7963A9140F7E7C046FFFFFF7FEE
S3150800131010B5041E0DD002F0ABF89E231B1A962BAF
S315080013200CDC082834D0083884406402640AD8B231
S3150800133001E000200024C005204310BD992B13DCD2
S31508001340421F9440144A224061071CD00F212140B5
S31508001350042918D00432D408520115D59F236402F3
S31508001360181A640AC0B2E6E7020021001B3291404F
S315080013700A00511E8A410521091ACC401443064A1F
S3150800138022406107E2D1D4086402640AD8B2D2E7DF
S315080013906402640A8E30CEE7FFFFFFFBF0B54F46C6
S315080013A04646D646C0B582B0009001910E034C0061
S315080013B0CD0F710A009E5F00760F0E4300990092CA
S315080013C00193C900894619037B0D9846019B490A72
S315080013D0DB0F9C46009B009A5B0F0B434146640D4E
S315080013E0D200611A654500D1A6E0002972DD47469C
S315080013F0002F00D1DDE0CC4FBC4200D19AE1012795
S31508001400382917DC80273F043B431F2900DDDDE12F
S315080014102027781A1F008740BA461700CF4084460F
S3150800142038005746074360468240CB40501E8241EB
S31508001430F61A17434B46DF1BB94580414042361A18
S31508001440330200D4FFE07602760A002E00D13CE192
S31508001450300002F00DF80300083B20213800CA1AB4
S31508001460D0409E4002009F4032439C4200DDA6E1E8
S31508001470181B0130091A3E008F40C6407B1E9F414B
S3150800148013008B4037431F43C2403B00160000241D
S31508001490134300D1DFE17B0700D132E30F233A0083
S315080014A03B40042B04D03A1DBA42BF417F42F6198D
S315080014B0330200D423E39C4B01349C4200D1B4E0B0
S315080014C09A4B64051E40640D7707D20876021743C7
S315080014D0360BACE0002900D17EE04146091B002C02
S315080014E000D060E134004846044300D1C9E14C1EEF
S315080014F0012900D12EE28C4DA94200D124E2012710
S31508001500382C11DC21001F2900DD0BE220243700CE
S315080015104846641AA740C84007434846A040CE40FC
S31508001520441EA0419B1B0743D71BBA429241524215
S31508001530654644469E1A83E7002900DC9CE0474638
S31508001540002F67D11F00174300D1E4E0481E012988
S3150800155000D19BE1744FB94200D1EBE001270100AD
S31508001560382811DC1F2900DDC7E12027781A1F005B
S31508001570844687401000C840074360468240CB40F7
S31508001580501E8241F61817434F444F45804140424A
S315080015903618330257D5644B01349C4245D0012195
S315080015A0624B7A081E4039400A43F7071743760804
S315080015B071E71F00174300D1ADE04F1EBC46012955
S315080015C000D182E1584FB94200D190E16146012726
S315080015D0382900DD2EE718E7554F611C394200D03F
S315080015E0D0E0310048461F0001431743002C00D0C5
S315080015F03DE1002900D1BCE1002F00D0BFE14B46F8
S315080016000021D80877070743F00806034C05360B70
S31508001610640D0CE0444FBC4200D18BE00127382909
S31508001620B2DC80273F043B439CE7002600272405BD
S315080016303443ED072C433800210002B0E0BCBA461B
S31508001640B146A846F0BD7B0704D00F233B40042BC8
S3150800165000D028E7F808344B77070743F0089C4280
S3150800166000D04AE23B00034359D08026360306439E
S3150800167036032D4C360BDAE7002961D04146091BA3
S31508001680002C00D1B9E0284CA04500D1A5E10127DE
S31508001690382913DC8024240426431F2900DDC8E1E9
S315080016A0202437004846641AA740C84007434846DE
S315080016B0A040CE40441EA0419B190743BF1897423D
S315080016C0924152424446D61863E7380001F0D0FEEC
S315080016D0030018331F2B00DCBFE63A0008388240A7
S315080016E09C4200DD83E01B1B581C1F2800DCB4E16C
S315080016F017001F3BDF40202805D040231B1A9A40BD
S31508001700531E9A4117430024002F0AD07B0700D0A6
S31508001710C4E626009EE74B460C00D8089BE7002740
S31508001720014C002683E7C046FF070000FFFF7FFF46
S31508001730FE0700004B467707D8080743F00891E7ED
S31508001740CD4F611C39426BD1310048460143002C0C
S3150800175000D04BE11F001743002900D181E1002F7B
S3150800176000D14CE74A444A458041F61840423618AB
S31508001770330200D5B0E117009146374300D03EE763
S31508001780002654E74946891A8846C145BF41F11AD9
S315080017907F42C91B0F0261D447460F4300D1BDE003
S315080017A00E00474651E6B54CA04500D100E1012799
S315080017B0382900DDB8E6802424042643A3E6B04E83
S315080017C0E41A16407B0700D03FE743E70F001800EE
S315080017D0203FF8408446202903D04027791A8B40B9
S315080017E01A43531E9A41634617001F4322E6A4482C
S315080017F0E11A10404707C00807E734004846044383
S3150800180000D1FAE04C1E012900D1D7E09B4FB9421E
S3150800181000D1E2E00127382C00DD4FE721003CE744
S31508001820964CA14200D1DDE04A444A458041F3186E
S3150800183040421818C707520817434608520705D0EA
S315080018400F220C003A40042A00D02CE67607FF083F
S3150800185037430009D9E600270026E8E64946571A1D
S31508001860BA4292419E1B52426546B61AEDE50029D8
S3150800187000D0C6E0002F67D1802600257F4C3603AE
S31508001880D5E665460C001E00D008E4E64A444A45FB
S315080018908041F318404218181100030200D496E05C
S315080018A0774B49081840C3070B434408490700D13A
S315080018B029E10F221A40042A00D1EAE01F1D9F429F
S315080018C0B641764236190224C4E649468F1AB94506
S315080018D08041F61A4042361A330206D47307FF08C7
S315080018E001211F43F00890E665460124ABE54B4607
S315080018F07707D8080743F008B4E60F001800203F1A
S31508001900F8408446202903D04027791A8B401A4389
S31508001910531E9A41634617001F4335E600250024E7
S31508001920002684E60C003500203CE540202905D039
S315080019304024611A8E404946314389464846411E2D
S31508001940884107002F43EFE5D2085F07654617432E
S31508001950D80887E6171ABA4292419E1B5242B61A0F
S315080019603302C1D47307FF08654601211F43F008F7
S315080019704BE6002F7BD065461E0091463FE6811A4E
S315080019808846C145A441F11A6442091B80242404EF
S31508001990214277D0101A8242924107009E1B52427A
S315080019A0B61A374300D0A0E06546002400263EE676
S315080019B05F07D20865461743D80853E6811891424F
S315080019C09241F01852428018030200D568E747078B
S315080019D0C9080F43C008012117E6D2085F07174355
S315080019E0D8083FE60C000026002720E6002956D135
S315080019F05F07D2081743D80834E60C001E00D00843
S31508001A0029E6C10870070143F008002F62D0802438
S31508001A102403204207D0DE08264204D1654630005A
S31508001A20D1085B0719434F0FC900C9087F070F4341
S31508001A3018E60C003000203CE0408446202905D0FA
S31508001A404024611A8E404946314389464846411E1C
S31508001A508841614607000F4330E620210027091A0E
S31508001A600EE51E00002F00D022E5002458E70025C9
S31508001A7000240026DBE5C046FE070000FF0700003D
S31508001A80FFFF7FFF47460F4300D147E70E00C146D9
S31508001A90B5E5DF086407022127430009B5E5190003
S31508001AA0C008770707431143F008002900D1D9E594
S31508001AB080210903084207D0DC080C4204D1D20869
S31508001AC05B071A43170020007B0FFF00FF085B0720
S31508001AD01F43C7E50F00C5E5124BD20833405F0721
S31508001AE05B02012417431E0BA1E5264212D00D4BBB
S31508001AF06546020001241E40E6E4210085E517003C
S31508001B00A8E53A00D4E4DB0864071C432700022151
S31508001B1000097AE5C0087707074365460021F008FB
S31508001B2073E5C046FFFF7FFFF0B5DE4645465746DC
S31508001B304E46E0B587B0009201930B031B0B9B46FC
S31508001B40CA0F4B00040080465B0D029200D198E054
S31508001B507C4A934237D05946420FC9000A4380212E
S31508001B6009041143C2009046774A894692469A4428
S31508001B70002300240393009E019F3B031B0B9B46F7
S31508001B807B0030005B0DFD0F002B59D06D4A934248
S31508001B9048D05946720FC9000A43802109041143E7
S31508001BA08B466949F2008C4651466344CB1A9A46DD
S31508001BB00021029E6E40F6B20F2C00D9CEE0634B90
S31508001BC0A4001B599F465A460243914600D090E00E
S31508001BD09A460223904608240393CCE7CB4642460E
S31508001BE0029D0399022900D1DEE1032900D18DE087
S31508001BF0012900D079E12E00002200230024904616
S31508001C001B052343F60733434046190007B0F0BCCB
S31508001C10BB46B246A946A046F0BD0022002490461F
S31508001C20484BEDE75A46009B1A43494B9C46E2440B
S31508001C30002A59D102231C43002302219B46B8E7F8
S31508001C405A46009B1A4349D05B46002B00D19CE1BB
S31508001C50584601F00DFC020003000B3A1D27009EB2
S31508001C60BA1A19005846D640083988403200024345
S31508001C709346009A8A40374953448A4600219A4433
S31508001C8097E75B460343994621D05B46002B00D174
S31508001C9069E1584601F0ECFB0B235B429C460200C7
S31508001CA0844466461D239B1B260011005846DE40C9
S31508001CB00839884033000343994623008B409846E9
S31508001CC0254B00249B1A9A460023039353E70023C7
S31508001CD098469A460133042403934CE701231C4390
S31508001CE0002301219B4664E70323320003211C439A
S31508001CF05FE79A460323D9460C2403933BE7002360
S31508001D008024984600260F4B240379E780245B46F7
S31508001D1024031C4324032E0090460A4B240B6FE72A
S31508001D2080244B462403234202D05B462342F0D04C
S31508001D3080244B4624031C432403029E014B240B98
S31508001D405EE7C046FF07000001FCFFFFF8A6010892
S31508001D5001F8FFFFF30300000DFCFFFFCB4500D29F
S31508001D60F8E000D1F3E001235B429C46444648462E
S31508001D700025E2445B46170E1B021F43190C3B0461
S31508001D80120200971F0C914602910397FEF75EFA1E
S31508001D9002007A430B04210C804619438A4209D96A
S31508001DA0009F0123BC465B4261449C46E0448F4247
S31508001DB000D85CE1881A0299FEF748FA039A2404C7
S31508001DC042430904240C03000C43A24206D9009995
S31508001DD0013B8C466444A14200D842E1A01A42461F
S31508001DE012041A4393464B4659461B0C1F0004938C
S31508001DF00B0449460904090C0C001B0C5C43120C25
S31508001E007B43884651437A43270CBC465B18634498
S31508001E10994203D9802149028C466244190C24044C
S31508001E201B04240C8A181C19904202D316D1A54209
S31508001E3014D25B46009F013B4D4405934D459B419B
S31508001E40BC465B426344C018874200D302E1824223
S31508001E5000D929E100D124E1059B9B462C1BA5420C
S31508001E60AD41009B801A6D42401B834200D10FE1B1
S31508001E700299FEF7EBF9039A0B044243210C05007D
S31508001E8019438A4200D9CBE0881A0299FEF7DEF98F
S31508001E90039A240442430904240C03000C43A24277
S31508001EA000D9CAE04146A41A2A041A43049F130417
S31508001EB01B0C594340467B439C46150C68430B0C48
S31508001EC0844463447D43984203D980204002844673
S31508001ED06544180C09041B04090C40195B18844254
S31508001EE027D323D0012335001A43944B5344002BA0
S31508001EF060DD510700D086E02E00D1085A46D2018F
S31508001F0006D55A468E4B1A4080239346DB00534427
S31508001F108C4A934200DD80E65A4652070A439046A9
S31508001F205A465B055402240B5B0D69E63500002B07
S31508001F30DBD0009D511EAC466444AC4200D29EE004
S31508001F40844200D2E1E000D1EEE00A00CAE7424549
S31508001F5000D908E74B46DC07580843465B081C438C
S31508001F604346DD0706E701F083FA15239C468444B9
S31508001F700200634620321C2B00DC92E62300083858
S31508001F8083409946002398469AE601F071FA0200C2
S31508001F900300153220331C2A00DC5FE60099083856
S31508001FA0814000228B4666E600222E0000249046D9
S31508001FB0654B25E62E000121C91A382900DD1BE6E6
S31508001FC01F297EDC6148140050445B4682408340EA
S31508001FD0CC40501E824123431A435B46CB405107EF
S31508001FE009D00F211140042905D0111D91429241B3
S31508001FF052429B180A00190200D49BE000220123D2
S3150800200000249046FCE50F211140042900D173E70E
S31508002010111D9142924152422E00C90893446DE720
S31508002020009B013D9C4661448B4200D92CE78A42BD
S3150800203000D829E7851E614426E70099013B8C46AE
S315080020406444A14200D92DE7A24200D82AE7831E9C
S31508002050644427E7874200D0FEE6A94500D9FBE697
S31508002060F5E6A24200D8B9E6831E6444B6E68A427B
S3150800207000D89FE6BC46831E984661449AE60A0045
S31508002080844200D02EE74B4500D02BE735002CE7DD
S315080020902A4B2F4A5344924543DB0122002193449D
S315080020A02CE7AC4200D8D7E602235B429C4600994F
S315080020B04D444D459B41E3448C465B426344C018FE
S315080020C0CCE61F204042C31A5846D840202904D0DF
S315080020D05946204B534499400A43531E9A410723B5
S315080020E01900024300241140134209D00833134053
S315080020F0042B1DD0131D934289411A0049424907F2
S31508002100D2080A43904600237AE54946009F4D00C7
S315080021104D458941BC4649426144A946023A64187C
S31508002120AEE70122524246E79945EED30A00AAE7EE
S315080021300021E5E759075B021C0BE1E7FF030000F6
S31508002140FFFFFFFEFE070000FF0700001E04000059
S3150800215002FCFFFF3E040000F0B55746DE464E4639
S315080021604546E0B50D000400E80F83460903D80F7D
S31508002170090B824619488C461F0369005E00490D03
S315080021803F0B760D814218D086420FD00120B1420E
S315080021900DD1BC450BD1944209D1D3451CD0002999
S315080021A005D160462043431E984100E00120F0BC5B
S315080021B0BB46B246A946A046F0BD01208E42F6D1DE
S315080021C0614639430F0017432743F0D15B46524611
S315080021D0981A431E9841EAE70020E8E7FF0700003F
S315080021E0F0B557464E464546DE46E0B50D000E03A9
S315080021F04900490D8A46DF0FE90FBC4683B02F4FC9
S31508002200040080460191580019039146360B090BC4
S31508002210400DBA451DD0B8420DD05746002F2AD1D9
S315080022203443002824D10A4336D0002C41D16346D2
S315080022305800013815E0114338D15346002B01D117
S315080022402643F4D0019B634507D1019B580001380A
S3150800225007E026432AD1504521D00120019B5F4241
S31508002260384303B0F0BCBB46B246A946A046F0BD0B
S31508002270002CDCD0E6E70028EFD0019B6345ECD1C3
S315080022808245EADCE1DB8E42E7D8DED1C845E4D8F0
S315080022900020C845E5D2D8E7002CE2D0DDE7114397
S315080022A004D1019B6345D8D10020DAE702204042D9
S315080022B0D7E7019B6345E6D0CFE7C046FF07000096
S315080022C0F0B557464E464546DE46E0B50D000E03C8
S315080022D04900490D8A46DF0FE90FBC4683B02E4FE9
S315080022E0040080460191580019039146360B090BE4
S315080022F0400DBA451ED0B8420DD05746002F27D1FB
S315080023003443002833D10A4334D0002C40D16346E5
S315080023105800013815E0114312D15346002B01D15C
S315080023202643F4D0019B63451DD00120019B5F42E3
S31508002330384306E0264303D15045F6D111431CD055
S31508002340022003B0F0BCBB46B246A946A046F0BD83
S315080023500028EAD0019B6345E7D18245E5DC02DB2C
S315080023608E42E2D80ED0019B58000138E9E7002CCE
S31508002370CDD0D7E7002CE4D0D7E7019B00206345F2
S31508002380DFD0D2E7C845D0D80020C845D9D2EAE779
S31508002390019B6345E4D0C8E7FF070000F0B5574640
S315080023A04E46DE464546E0B51F000B031B0B1600DE
S315080023B09A46CA0F4B000400914685B05B0D00D1C2
S315080023C0CFE1CD4A934255D05146420FC9000A4340
S315080023D0802109041143C2009046C84A8A4693469A
S315080023E09B440023002502933C037B00FA0F0196C9
S315080023F0240B5B0D009200D188E1BF4A934200D1BD
S3150800240092E0BE4A944663449B440A2D42DCE400AB
S31508002410730F23438024494624041C43F300019385
S31508002420009B00205940CBB20393022D00DC94E0B8
S315080024300123AB401D00A6232A00DB001A401D42DB
S3150800244000D029E290239B001D4200D14DE20023D3
S31508002450802499462403A84B10004A461B052343AB
S31508002460D2071343190005B0F0BCBB46B246A946CD
S31508002470A046F0BD52460243904600D0ACE19B46CA
S315080024800223924608250293AEE7009BA246994688
S31508002490019B9846029B022B00D1CAE1032B00D16F
S315080024A092E1012B10D1002300240022D4E7012257
S315080024B07B083A4013435246D2071343984653467D
S315080024C05B089A46039B99465B46581C8023DB00AB
S315080024D05B44002B00DCB1E1424652070BD00F22C9
S315080024E041460A40042A06D04246111D41459241FA
S315080024F08846524292445246D20106D55246804BED
S315080025001A4080239246DB00C3187E4A934200DDB8
S315080025108FE14246D108524652070A4351465B05A7
S315080025204C02240B5B0D97E7734B26439C46E3440A
S31508002530002E00D16FE1032349461D43009B5940F5
S31508002540CBB203930A2D00DD33E10123AB401D0016
S315080025500323029388222A4297D14246434612040D
S31508002560120C160001981D0C030C0004000C4643BF
S31508002570B4461E006E430096160007005E43614689
S31508002580B0466F430E0CB8444644B74205D980217D
S3150800259049028846009F4744009761460904090C8A
S315080025A0370C36048C463100614401911100260C23
S315080025B02404240C61438C462100694389466146FC
S315080025C0090C884672434A4442447543914503D9E7
S315080025D08021490288464544110C8846614609040B
S315080025E0090C8C4612046244B91802915146090C2A
S315080025F08C4651460F043F0C3900414345448846F2
S31508002600614641438A4641466046090C8946584315
S315080026107B4353444B449A4503D980214902894652
S315080026204844190C894641460904090C884639006C
S3150800263061431B044344884661464C4371438C46B8
S31508002640414677430E0C3F19F6194844B44203D95C
S31508002650802149028946CC440299009F8946310463
S315080026604F4489464146974292410C04240C4C44F7
S31508002670FF1852426419A1189F429B418846824618
S315080026805B42994690459241AC42A441C244D1442A
S3150800269052426442144399459B41824592415B42AA
S315080026A0524213434A46360CA419E31863445B02A4
S315080026B0D20D1A43019992467A020A43501E824164
S315080026C0FF0D17434A4652021743B846DB0100D5A9
S315080026D0EDE60D4B039A5B449146002B00DCACE01B
S315080026E03A00520700D110E70F2258463A40042A0A
S315080026F000D0F9E609E7C046FF07000001FCFFFF26
S31508002700FFFFFFFEFE070000FF0300002200324322
S315080027106FD0002C00D1C2E0200000F0A9FE020014
S3150800272003000B3A1D20821A30001900D0400839E0
S315080027308C400200224334008C405946CB1A864905
S315080027408B469B440A2D00DDA4E64946009B01946E
S315080027505940CBB2140000200393022D00DD67E632
S31508002760FBE65346034398463CD05346002B00D11C
S31508002770A3E0504600F07CFE0B235B429C46020019
S31508002780844411005046083988401D238046604617
S315080027901B1A2000D8400300404603439A462300EC
S315080027A08B4098466C4B00259B1A9B460023029348
S315080027B01AE60F2D00D0C9E0802352461B031A42A1
S315080027C002D01C4200D192E08024534624031C43C5
S315080027D024034246240B3EE69B46032380460C25EB
S315080027E0029301E600239A469B4601330425029389
S315080027F0FAE501210D430A2D00DD4BE6494600980E
S315080028004140C9B20391022D00DC96E00023002462
S31508002810012001930CE649460223009A2B435140B6
S31508002820CAB203920A2B00DD34E6002D57D1039B6A
S31508002830994600240022494B0EE658460121C91A3A
S31508002840382900DD2FE61F2956DD1F22544652423D
S31508002850D31ADC40202907D0414B42469C465346B2
S31508002860604483401A43904642460721531E9A41C4
S315080028700B00224313400024114209D00F231340B2
S31508002880042B5DD0111D91429B410A005B425B07F8
S31508002890D2081A430023DFE5039B9946FAE5019817
S315080028A000F0E6FD02000300153220331C2A00DC86
S315080028B038E7019A083882403FE700F0D9FD15232A
S315080028C09C4684440200634620321C2B00DC58E7F1
S315080028D0002398462300083883409A4662E71D007D
S315080028E00023002402200193A2E5029032E61C434D
S315080028F0009B019A9946AEE51A4B5246C3184046C4
S315080029009A40C8400243404698400300581E8341F7
S3150800291054461A43CC40530709D00F231340042BBF
S3150800292005D0131D934292415242A4181A0023025D
S3150800293008D50123002400228EE5894600248BE56C
S315080029400023A5E763076402240BA1E7009BA246C0
S315080029509946019B984637E70DFCFFFFFF070000E5
S315080029603E0400001E040000F0B557464E46454694
S31508002970DE46E0B583B0009001910C034D00CE0F02
S31508002980610A009C5F00640F0C4300990092019352
S31508002990C80019037B0D9946019BCC4FDB0F9C465B
S315080029A04B0A00998046490F1943009B8B46DA006B
S315080029B092466D0DB94500D1BFE0012361465940E5
S315080029C04B468C46EB1A8E4275D0002B00DCA3E2F0
S315080029D04946002900D1CEE0BD4200D100E20127D8
S315080029E0382B19DC802759463F0439438B461F2B61
S315080029F000DDFAE12027F91A8C4659466746B940A0
S31508002A000F001100D9400F4361468A40511E8A4182
S31508002A105946D9401743641AC71BB84280414042F9
S31508002A20241A230200D440E16402640A002C00D16F
S31508002A3054E1200000F01CFD0300083B202138006B
S31508002A40CA1AD0409C4002009F4022439D4200DDA6
S31508002A50A6E1581B0130091A3C008F40C4407B1E72
S31508002A609F4113008B4027431F43C2403B0014007D
S31508002A700025134300D1F7E17B0700D177E30F2345
S31508002A8038003B40042B04D0381DB842BF417F4272
S31508002A90E419230200D468E38C4B01359D4200D12A
S31508002AA0F4E08B4B6D051C406D0D6707C00864028A
S31508002AB00743240BECE0002B00DC29E349460029F8
S31508002AC000D0D6E05946114300D12EE1591E012BFC
S31508002AD000D1E6E1BB4200D182E101270B0038298B
S31508002AE014DC1F2B00DD3CE22027F91A8C465946D8
S31508002AF06746B9400F001100D9400F4361468A4026
S31508002B00511E8A415946D940174364183F188742CF
S31508002B10804140422418230200D4C6E06B4B01359D
S31508002B209D4200D1B2E00121694B7A081C40394028
S31508002B300A43E707174364089EE7664B11438A462C
S31508002B40EB18002928D066452CD0002B5BD0002D29
S31508002B5000D12CE15B4666465F07D2081743DD08BD
S31508002B603B002B4300D1E2E0802424032C432403BA
S31508002B70564D240B8CE05946114300D1D5E0591E19
S31508002B80012B00D1B9E1BB4200D1B1E101270B000D
S31508002B90382900DD40E72AE76146012779408C4657
S31508002BA06645D2D1002B00D1C5E0002D00D055E1F5
S31508002BB04B462500054300D112E2591E8C46012BCF
S31508002BC000D149E2414DAB4200D18FE201273829B5
S31508002BD011DC63461F2B00DD5BE2614620232700DC
S31508002BE05B1A050098409F40CD40431E9841CC4053
S31508002BF02F430743A344BF189742924152425A446F
S31508002C0014004D4687E7344F6B1C3B4200D0B6E0B4
S31508002C105946230011430F000343002D00D026E137
S31508002C20002B00D1C0E1002900D1A1E0831A984603
S31508002C305B464045AD41E31A6D425B1B80252D047A
S31508002C402B4200D14BE15B46101A824292411C1B73
S31508002C500700012663465242A41A27431E40002F46
S31508002C6000D142E12C4200D16DE2194B01251C40EE
S31508002C701BE7BD4200D13BE10127382B00DD45E7C4
S31508002C80802759463F0439438B462AE70024002704
S31508002C902D052543F60735433800290003B0F0BC57
S31508002CA0BB46B246A946A046F0BD7B0704D00F2313
S31508002CB03B40042B00D0E7E62B00F808034A6707D9
S31508002CC00743E508934200D14AE7A5E0FF0700005D
S31508002CD0FFFF7FFF01F8FFFFFE070000380000F046
S31508002CE0C7FB030018331F2B00DCA7E63A00083899
S31508002CF082409D4200DD8AE05B1B581C1F2800DCD1
S31508002D00D8E117001F3BDF40202805D040231B1AB7
S31508002D109A40531E9A4117430025002F00D1E5E03B
S31508002D207B0700D0ABE62C00C6E7C008C6E700273D
S31508002D300024D14DACE7D14F6B1C3B4271D1230027
S31508002D400343002D00D04EE15746002B00D1B5E1D4
S31508002D50002F0DD08318834280415C4440422418DA
S31508002D60220200D5C8E11F009846274300D1BCE0DF
S31508002D7043466707DB081F43E50800234CE0831A30
S31508002D8098465B464045BF41E31A7F42DB1B1F025C
S31508002D907CD447461F4300D1A6E01C00474645E6BB
S31508002DA0B74CED1A14407B0700D080E784E74B4602
S31508002DB02500054366D05F1E012B00D1FCE0AE4D11
S31508002DC0AB4200D15EE16646382F00DCB4E0012054
S31508002DD0171ABA4292415B4652424D469C1A20E661
S31508002DE06707C0080743E508BAE61F005946203FAB
S31508002DF0F9400F00202B05D04021CB1A594699409F
S31508002E000A43924653465A1E93411F4304E6EB1A59
S31508002E109B4D15406F07ED082C035D05240B6D0DC2
S31508002E2036E7954DAB4200D1D6E0821821008242A2
S31508002E308041594440420818C707520817434408B6
S31508002E40520700D485E10F221D003A40042A00D01B
S31508002E501AE6FF08640727430509DDE75B46D2083B
S31508002E605F071743DD087BE60027002410E7002BE1
S31508002E7000D0D6E0002900D02FE1802400267E4D20
S31508002E80240305E766465C46D00817E75B46171A2B
S31508002E90BA4292411C1B012663465242A41A1E409E
S31508002EA0C4E58318834280415C44404225182A02BF
S31508002EB000D4DAE0724A5B081540EA071A43690843
S31508002EC05B0700D44AE10F231340042B00D1FCE032
S31508002ED0171D9742A441644202256418ECE647464A
S31508002EE01C001F4300D043E7002600250024CFE638
S31508002EF0C00867070743E50832E6871A5B46B84203
S31508002F008041E41A4042241A230228D46307FF08A2
S31508002F101F43E50801237FE7002B00D173E64B46E4
S31508002F205F1B3B00002D00D142E7382F00DDECE0A7
S31508002F3080230E001B041C431F2F25DC202523009D
S31508002F40ED1B0100A840AB40F940451EA8410B43C4
S31508002F50FC4018435B461B1B9B4639E76646012522
S31508002F6062E51F005946203FF9408C46202B05D0C4
S31508002F7040275946FB1A99400A43924657467B1EF4
S31508002F809F4163461F43C1E53B002500203BDD40CA
S31508002F90202F04D04023DB1B9C402043804640461C
S31508002FA0431E9841284313E700299DD0012663460E
S31508002FB05C4690461E40DBE6171A5B46BA429241CB
S31508002FC01C1B5242A41A2302C8D46307FF081F43D6
S31508002FD066460123E5081FE71D000024002757E67B
S31508002FE05C46D0086AE6002B00D137E75346C0088E
S31508002FF067070743E508002B00D1B1E580231B03CB
S315080030001D4208D05946C808184204D1D2084907B3
S315080030100A43170005007B0FFF00FF085B071F43E5
S315080030209EE5C00863071843E508002953D08023A6
S315080030301B031D420AD05946CC081C4206D101265C
S3150800304063462500D008490708431E40470FC000BD
S31508003050C0087F07074383E58318934292415C447F
S315080030605242A5182A0200D524E76F07DB081F433A
S31508003070ED080123D0E6C046FF070000FE07000062
S31508003080FFFF7FFF5B46D2085F0766461743DD08EA
S3150800309066E52500203BDD406346202B05D040230E
S315080030A061465B1A9C402043804647467B1E9F41EB
S315080030B02F43A0E520210027091AD2E4002F00D1CA
S315080030C013E75C4617000025F6E5D70849070223EB
S315080030D00F432D09A0E6070042E55B4601265F0778
S315080030E0DD086346D20817431E4039E55B46D20819
S315080030F05F071743DD0833E51E4ADB0822405707FA
S31508003100520201251F43140BC2E50E0001205FE69B
S31508003110002B0DD04B465B1B9C46002D00D148E585
S315080031200127382B00DD66E580231B041C4350E588
S315080031306B1C114D2B4200D073E6594623001143F0
S315080031408A46034300E66707C00800230743E508E5
S3150800315062E66407FF08274305095DE6D2084907C2
S3150800316011430F0002232D0956E60700A4E538008F
S315080031708FE4C046FFFF7FFFFE070000F0B5C64696
S315080031801E03360BB0460D4E0C034D005F0000B50E
S31508003190240B6D0D7F0DB5420BD0084900208F42D8
S315080031A004D1464616433000431E984180BCB846B3
S315080031B0F0BD04430120002CF8D1EEE7FF0700001C
S315080031C00B00020070B5164D0C0382B049000020B2
S315080031D000920193240B490DDE0FA94204DD114824
S315080031E0814203DD104BF01802B070BD8020400309
S315080031F020430E4C641A1F2C08DD0D4B5B1AD84071
S3150800320003005842002EEFD11800EDE7094B009A4B
S315080032109C46030061448B40E2401343F1E7C046F5
S31508003220FE0300001D040000FFFFFF7F33040000BB
S3150800323013040000EDFBFFFF70B5002816D0C31776
S31508003240C5185D40C40F280000F012F9104B1B1A70
S315080032505B055B0D0A2814DC02002E001532964029
S315080032600B22121AD5402D032D0B03E00024002350
S31508003270002500261B052B43E407234330001900CD
S3150800328070BD0B3885402D0300262D0BF2E7C0468E
S315080032901E04000010B5041E10D000F0E9F80E4B0D
S315080032A01B1A5B055B0D0A280FDC0B222100121A7C
S315080032B0D14015300A038440120B01E00023002296
S315080032C01B0513432000190010BD22000B3882404D
S315080032D012030024120BF3E71E04000070B5420225
S315080032E04300C40FFE201B0E591C550A08420CD079
S315080032F0E02189008C466D07120B63441B051343B6
S31508003300E40723432800190070BD002B14D1002DB3
S315080033101BD0280000F0ACF80A281CDC0B232A0076
S315080033201B1ADA40030015339D400E4B12031B1A75
S315080033305B05120B5B0DE1E7002D09D0130B80220C
S3150800334012031A436D07084BD8E700230022D5E776
S315080033500022054BD2E703002A000B3B9A400025C2
S31508003360E3E7C04689030000FF070000F0B54B00FD
S315080033700F035B0D3A4C450F83B07F0A5E1C2F4343
S3150800338000900191CA0FC50026420BD035495C183A
S31508003390FE2C13DDFF200023C0051843D207104377
S315080033A003B0F0BD3D43002B01D10020F4E7002D0A
S315080033B0F0D08023DB03FF203B43EDE7002C0CDD38
S315080033C0009BFF009B01581E8341690F3B430B433B
S315080033D0590727D1DB08E0B2DEE72100173131DBD8
S315080033E080211E2009043943001B1F282DDD0226D3
S315080033F07642341B0E00E6403400202804D01A48D2
S315080034008446634499400D432B00591E8B41234340
S31508003410590703D00F21194004290BD19B0100201D
S315080034205B0AB9E70F211940042904D19B015B0AFD
S31508003430E0B2B1E7002404335901F7D5013400237B
S31508003440E0B2A9E700200023A6E7084C1C192B00C8
S31508003450A540C340A140681E854129430B43D7E7D1
S31508003460FE07000080FCFFFFA2FCFFFF82FCFFFFB7
S315080034701C2101231B04984201D3000C10391B0A96
S31508003480984201D3000A08391B09984201D300095A
S31508003490043902A2105C40187047C04604030202B1
S315080034A001010101000000000000000010B500291C
S315080034B003D1FFF7DDFF203002E00800FFF7D8FF51
S315080034C010BDC04680B582B002AF8023DA00094934
S315080034D00948002301931823009300230FF0CAFC20
S315080034E00300012B01D0002300E001231800BD468C
S315080034F080BDC046189D0108F138000880B582B025
S3150800350000AF7860BF4BC0480122190002F018FAD4
S31508003510BC4B1A685B68012A02D1002B00D1ACE0CB
S31508003520BA4BBB480122190002F0AAF9B94BBA48AE
S315080035300122190002F0A4F9B84BB9480122190072
S3150800354002F09EF9B74BB8480122190002F098F923
S31508003550B64BB7480122190002F092F9B54BB648A6
S315080035600122190002F08CF9B44BB5480122190062
S3150800357002F086F9B34BB4480122190002F080F92B
S31508003580B24BB3480122190002F07AF9B14BB2489E
S315080035900122190002F074F9B04BB1480122190052
S315080035A002F06EF9AF4BB0480122190002F068F933
S315080035B0AE4BAF480122190002F062F9AD4BAE4896
S315080035C00122190002F05CF9AC4BAD480122190042
S315080035D002F056F9AB4BAC480122190002F050F93B
S315080035E0AA4BAB480122190002F04AF9A94BAA488E
S315080035F00122190002F044F9A84BA9480122190032
S3150800360002F03EF9A74BA8480122190002F038F942
S31508003610A64BA7480122190002F032F9A54BA64885
S315080036200122190002F02CF9A44BA5480122190021
S3150800363002F026F9A34BA4480122190002F020F94A
S31508003640A24BA3480122190002F01AF9A14BA2487D
S315080036500122190002F014F9A04BA1480122190011
S3150800366002F00EF96749012200230A604B60654B98
S3150800367065480122190002F003F9644B64480122E7
S31508003680190002F05DF9634B63480122190002F044
S3150800369057F9624B62480122190002F051F9614B51
S315080036A061480122190002F04BF95E4B1A685B6803
S315080036B010001900FDF71CF88A4A8B4BFEF76EFEC0
S315080036C002000B0010001900FFF750FE021C874B82
S315080036D01A60564B56480122190002F031F9554B2B
S315080036E055480122190002F02BF9544B544801227F
S315080036F0190002F025F9534B53480122190002F02C
S315080037001FF9524B52480122190002F019F9514B80
S3150800371051480122190002F013F9504B5048012272
S31508003720190002F00DF94F4B4F480122190002F01B
S3150800373007F94E4B4E480122190002F001F94D4B8C
S315080037404D480122190002F0FBF84C4B4C48012267
S31508003750190002F0F5F84B4B4B480122190002F00C
S31508003760EFF84A4B4A480122190002F0E9F8494B9A
S3150800377049480122190002F0E3F8484B484801225B
S31508003780190002F0DDF8474B47480122190002F0FC
S31508003790D7F8464B46480122190002F0D1F8454BA6
S315080037A045480122190002F0CBF8444B444801224F
S315080037B0190002F0C5F8434B43480122190002F0EC
S315080037C0BFF8424B42480122190002F0B9F8414BB2
S315080037D041480122190002F0B3F8404B4048012243
S315080037E0190002F0ADF8FFF76DFE01F0C1FE01F019
S315080037F0FFFE00F091FE00F03DF9C8200FF090FCA6
S31508003800C046F8E77804002000E8070818040020F6
S3150800381000000708200400200008070828040020E4
S3150800382000100708380400200018070808000020C0
S315080038300028070810000020003007084804002068
S315080038400038070850040020004007081800002028
S31508003850004807082000002000500708280000201C
S3150800386000580708300000200060070838000020CC
S315080038700068070858040020007007084000002068
S31508003880007807084800002000800708500000203C
S3150800389000880708580000200090070860000020EC
S315080038A0009807086800002000A807087000002094
S315080038B000B007087800002000B80708800000203C
S315080038C000C007088800002000C807086804002010
S315080038D000D007089000002000D8070898000020AC
S315080038E000E00708D26F5F07CE19913F3004002029
S315080038F080B582B000AF786000F006F864200FF05B
S315080039000FFCC046F8E70000B0B582B000AF504BD8
S315080039101A685B68110019432AD14E4B1B78012B94
S3150800392026D101F01FF903001800FDF7F1FC021C6F
S31508003930494B1B68191C101CFCF7BCFF031C181C00
S31508003940FCF75EFE02000B0044490A604B60434BDD
S3150800395043480122190001F093FF3D490122002343
S315080039600A604B603A4B3F480122190001F088FF74
S3150800397001F0F8F803001C0000231D00374B1A68F5
S315080039805B68AB425FD801D1A2425CD800237B605A
S3150800399003F01AF80100344B1A685B681300CB1859
S315080039A07B6005E0314B01220421180005F00FF871
S315080039B07B68002B05D003F007F802007B6893426A
S315080039C0F0D82A4B00220421180005F000F802F06E
S315080039D0FBFF0100264B1A685B6813005B019B1A04
S315080039E09B009B18DB00CB187B60C0467B68002BCE
S315080039F005D002F0E9FF02007B689342F6D802F090
S31508003A00E3FF0100184B1A685B681300CB187B604C
S31508003A1005E0164B01220421180004F0D8FF7B6844
S31508003A20002B05D002F0D0FF02007B689342F0D845
S31508003A300E4B00220421180004F0C9FF0449002295
S31508003A4000230A604B60C046BD4602B0B0BDC04602
S31508003A501804002014040020300400200000002070
S31508003A600020070800000708200400200004005072
S31508003A7028040020F0B585B000AFCC4B1B88142B6A
S31508003A8003D9CB4B04221A7091E0CA4B08211800BF
S31508003A9004F080FF031E06D0C64B0821180004F068
S31508003AA079FF031E03D1C24B05221A707FE0BF4B74
S31508003AB09A68BE4BDB68191C101CFCF7FBFE031C3E
S31508003AC01E1CBA4B1A69B94B5B69191C101CFCF70A
S31508003AD0F1FE031C191C301CFDF796F9031C181C73
S31508003AE0FDF7F6FB0300DA179B185340BB60DB179C
S31508003AF0FB60B14B1A685B68B868F9680E00B34298
S31508003B004CD80E00B34202D101008A4246D8A84BCF
S31508003B1001221A70A54B9A68A44BDB68191C101C65
S31508003B20FDF772F9031C181CFDF7D2FB0300DA1720
S31508003B309B1853403B60DB177B60A04B1A685B6899
S31508003B40386879680E00B34209D80E00B34202D12C
S31508003B5001008A4203D8964B02221A7027E0934B3B
S31508003B601A69924B5B69191C101CFDF74DF9031C69
S31508003B70181CFDF7ADFB0300DA179B1853401C0011
S31508003B80DB171D008E4B1A685B68AB420FD801D154
S31508003B90A2420CD8864B03221A7008E0844B0622F0
S31508003BA01A70002000F020FC002000F069FC804B11
S31508003BB01B78062B00D1A5E17D4B1B78052B00D978
S31508003BC09BE19A007F4BD3181B689F467E4B1800D3
S31508003BD001F016FF754B9B68181CFFF77FFB020068
S31508003BE00B007A49080001F00BFF0A200FF098FA3B
S31508003BF06E4BDB68181CFFF771FB02000B0074495B
S31508003C00080001F0FDFE0A200FF08AFA674B1B69CF
S31508003C10181CFFF763FB02000B006E49080001F051
S31508003C20EFFE0A200FF07CFA604B5B69181CFFF761
S31508003C3055FB02000B006849080001F0E1FE0A2066
S31508003C400FF06EFA594B1B881A00644B11001800C6
S31508003C5001F0D6FE0A200FF063FA544B5B68181C75
S31508003C60FFF73CFB02000B005D49080001F0C8FEA7
S31508003C700A200FF055FA4D4B9A684C4BDB68191C15
S31508003C80101CFCF717FE031C1C1C484B1A69474BF3
S31508003C905B69191C101CFCF70DFE031C191C201C63
S31508003CA0FDF7B2F8031C181CFDF712FB0300D91721
S31508003CB05A184A404B4B1100180001F0A1FE0A2081
S31508003CC00FF02EFA00F03AF91CE1474B180001F004
S31508003CD097FE364B9B68181CFFF700FB02000B008B
S31508003CE03A49080001F08CFE0A200FF019FA2F4B0A
S31508003CF0DB68181CFFF7F2FA02000B0034490800CB
S31508003D0001F07EFE0A200FF00BFA284B1B69181CDF
S31508003D10FFF7E4FA02000B002E49080001F070FED6
S31508003D200A200FF0FDF9214B5B69181CFFF7D6FA3C
S31508003D3002000B002849080001F062FE0A200FF075
S31508003D40EFF91A4B1B881A00244B1100180001F0D2
S31508003D5057FE0A200FF0E4F9144B5B68181CFFF7AE
S31508003D60BDFA02000B001E49080001F049FE0A20B0
S31508003D700FF0D6F90D4B9A680C4BDB68191C101C12
S31508003D80FDF742F8031C181CFDF7A2FA0300D91721
S31508003D905A184A40154B1100180001F031FE0A2046
S31508003DA00FF0BEF900F074F9ACE0C04688040020B4
S31508003DB040040020000C005028000020500000207D
S31508003DC07800002038A70108309D0108689D010881
S31508003DD0789D0108889D0108989D0108A89D0108FD
S31508003DE0B49D0108C49D0108E09D0108109E0108C4
S31508003DF0464B180001F004FE454B9B68181CFFF75C
S31508003E006DFA02000B004349080001F0F9FD0A208B
S31508003E100FF086F93E4BDB68181CFFF75FFA0200C5
S31508003E200B003D49080001F0EBFD0A200FF078F978
S31508003E30374B1B69181CFFF751FA02000B0037496C
S31508003E40080001F0DDFD0A200FF06AF9304B5B69C6
S31508003E50181CFFF743FA02000B003149080001F06D
S31508003E60CFFD0A200FF05CF9294B1B881A002D4B51
S31508003E701100180001F0C4FD0A200FF051F9244B77
S31508003E805B68181CFFF72AFA02000B00264908008F
S31508003E9001F0B6FD0A200FF043F91D4B1A691C4BB9
S31508003EA05B69191C101CFCF7AFFF031C181CFDF7F7
S31508003EB00FFA0300D9175A184A401C4B110018006C
S31508003EC001F09EFD0A200FF02BF900F085F919E0A4
S31508003ED0174B180001F094FD002000F085FA0A201F
S31508003EE00FF01EF9002000F0CBFA0BE0114B18007A
S31508003EF001F086FD00F014FA04E00F4B180001F0FB
S31508003F007FFDC046C046BD4605B0F0BD209E0108EF
S31508003F1088040020689D0108789D0108889D01088D
S31508003F20989D0108A89D0108B49D0108509E0108A6
S31508003F30609E0108949E0108A49E0108B0B584B04D
S31508003F4000AF484B1B88180000231900464B1A6817
S31508003F505B688B4204D800D074E0824200D871E0D6
S31508003F60404B5B7F1C0000231D00404B1A685B68B2
S31508003F70944267D19D4265D13A4B5C683C4B1A68BE
S31508003F805B6810001900FCF78FFB031C191C201C2A
S31508003F90FCF7B0FA031E55D00023FB6002F014FDAF
S31508003FA00100344B1A685B6813005B019B1A9B007F
S31508003FB09B18DB00CB18FB602F4B180001F020FD87
S31508003FC01BE03B002D4A9A602D4B80221A702D4B20
S31508003FD01A685B68D3B27D33DAB2294BDA703B00D4
S31508003FE0274A03CA03C3FA239A003B0011001800A4
S31508003FF000F006FB05200FF093F8FB68002B05D0B0
S3150800400002F0E2FC0200FB689342DAD81E4B180065
S3150800401001F0F6FC012000F0E7F9FA239B001800EE
S315080040200FF07EF8002000F02BFA184B1A685B6830
S3150800403013005B019B1A9B009B18DB0018000FF00E
S315080040406FF80BE0002000F0CFF9FA239B00180068
S315080040500FF066F8002000F013FAC046C046BD46C9
S3150800406004B0B0BD880400201800002058040020C1
S315080040703800002040000020D89E01080300000CEC
S315080040807004002030000020049F0108480000202A
S31508004090B0B584B000AF464B1B8818000023190042
S315080040A0444B1A685B688B4203D800D06FE08242A3
S315080040B06DD93F4B5B7F1C0000231D003E4B1A68E1
S315080040C05B68944263D19D4261D1394B5C683B4B36
S315080040D01A685B6810001900FCF7E6FA031C191C3D
S315080040E0201CFCF707FA031E51D00023FB6002F0E0
S315080040F06BFC0100324B1A685B6813005B019B1A64
S315080041009B009B18DB00CB18FB602E4B180001F0B8
S3150800411077FC1BE03B002C4A9A602C4B80221A70D5
S315080041202B4B1A685B68D3B27D33DAB2274BDA7049
S315080041303B00264A03CA03C3FA239A003B00110030
S31508004140180000F05DFA05200EF0EAFFFB68002B68
S3150800415005D002F039FC0200FB689342DAD8012048
S3150800416000F042F9FA239B0018000EF0D9FF01204F
S3150800417000F086F9174B1A685B6813005B019B1AF7
S315080041809B009B18DB0018000EF0CAFF0BE000200E
S3150800419000F02AF9FA235B0018000EF0C1FF002090
S315080041A000F06EF9C046C046BD4604B0B0BDC04674
S315080041B08804002018000020600400206000002009
S315080041C068000020D89E01080300000C7004002037
S315080041D05800002070000020B0B584B000AF464BF0
S315080041E01B88180000231900444B1A685B688B4229
S315080041F003D800D06FE082426DD93F4B5B7F1C002D
S3150800420000231D003E4B1A685B68944263D19D42A9
S3150800421061D1394B5C683B4B1A685B681000190022
S31508004220FCF742FA031C191C201CFCF763F9031E51
S3150800423051D00023FB6002F0C7FB0100324B1A681D
S315080042405B6813005B019B1A9B009B18DB00CB186D
S31508004250FB602E4B180001F0D3FB1BE03B002C4AF9
S315080042609A602C4B80221A702B4B1A685B68D3B263
S315080042707D33DAB2274BDA703B00264A03CA03C3FA
S31508004280FA239A003B001100180000F0B9F905203E
S315080042900EF046FFFB68002B05D002F095FB0200E6
S315080042A0FB689342DAD8012000F09EF8FA239B00B7
S315080042B018000EF035FF012000F0E2F8174B1A68D7
S315080042C05B6813005B019B1A9B009B18DB001800B8
S315080042D00EF026FF0BE0002000F086F8FA235B00BC
S315080042E018000EF01DFF002000F0CAF8C046C046B0
S315080042F0BD4604B0B0BDC0468804002018000020A2
S31508004300680400208800002090000020D89E01083C
S315080043100300000C70040020800000209800002094
S3150800432080B584B000AF0023FB6002F04DFB0100AE
S31508004330274B1A685B6813005B019B1A9B009B1846
S31508004340DB00CB18FB60234B180001F059FB1BE080
S315080043503B00214A9A60214B80221A70204B1A682A
S315080043605B68D3B27D33DAB21C4BDA703B001B4A6A
S3150800437003CA03C3FA239A003B001100180000F091
S315080043803FF905200EF0CCFEFB68002B05D002F0A5
S315080043901BFB0200FB689342DAD8012000F024F8E0
S315080043A0FA239B0018000EF0BBFE012000F068F807
S315080043B00C4B1A685B6813005B019B1A9B009B18E1
S315080043C0DB0018000EF0ACFEC046BD4604B080BD4A
S315080043D068000020D89E01080300000C7004002025
S315080043E0580000207000002080B582B000AF7860C9
S315080043F07B68002B1DD01D4B1A685B68110019439A
S3150800440017D01B49012200230A604B60A023DB0555
S3150800441001221021180004F0DAFA164B1B78012B3A
S315080044201FD0144B01221A70134B180001F0E8FA3A
S3150800443017E00F49002200230A604B60A023DB0522
S3150800444000221021180004F0C2FA0A4B1B78012B2F
S3150800445007D1084B00221A70084B180001F0D0FA51
S31508004460FFE7C046BD4602B080BDC0460800002032
S315080044704804002016040020309F0108549F0108B4
S3150800448080B582B000AF78607B68002B1CD01C4BCF
S315080044901A685B681100194316D01A4901220023CD
S315080044A00A604B60184B01224021180004F08FFA6D
S315080044B0164B1B78012B1ED0144B01221A70144B75
S315080044C0180001F09DFA16E00E49002200230A6042
S315080044D04B600D4B00224021180004F078FA0B4B74
S315080044E01B78012B07D1094B00221A70094B1800BB
S315080044F001F086FAFFE7C046BD4602B080BDC04659
S315080045001000002050040020000800501504002068
S315080045107C9F0108A09F010880B582B002AF802366
S31508004520DA0011491148124B01931823009300230E
S315080045300EF0A0FC0300012B01D0012310E080231C
S31508004540DA000C490C480D4B0193182300930023FD
S315080045500EF090FC0300012B01D0012300E000239C
S315080045601800BD4680BDC046C89F010881450008A1
S3150800457080040020E49F0108B9450008840400204F
S3150800458090B587B000AF7860094B1B68094A0C24C0
S31508004590391918000EF0F6F90300012B03D13B195F
S315080045A0180000F055F801200EF0BAFDECE7C046F9
S315080045B0E00500203689410080B582B000AF7860FA
S315080045C0FA235B0018000EF0ABFD0B4B1B78022B91
S315080045D00ED10A4B1B780133DAB2084B1A70074B17
S315080045E01B78142B04D900F0CBFA044B00221A705E
S315080045F0014B02221A70E3E7E8050020B004002008
S3150800460090B583B000AF78603960104B1C683A6883
S3150800461013005B019B1A9B009B18DB001A00FA2308
S3150800462099001000FBF78CFD03001A007968002337
S3150800463020000EF068F80300012B01D0012300E0EA
S3150800464000231800BD4603B090BDC046E40500200F
S3150800465080B582B000AF78607B689B68434A934216
S315080046603DD0424A934200D97AE0414A934263D008
S315080046703F4A934200D973E03E4A93420FD03D4ADF
S3150800468093426DD83C4A934246D03B4A934267D8F8
S315080046903A4A934248D03A4A934255D060E07B68FA
S315080046A0180000F09BF8021C364B1A617B6818004C
S315080046B000F0C6F8021C334B5A617B68180000F0FC
S315080046C0F1F8021C2F4B9A607B68180000F01CF961
S315080046D0021C2C4BDA602C4B01221A7041E07B68D5
S315080046E002221C21180000F0E7F903001A00254BE6
S315080046F05A777B6802221E21180000F0DDF90300B4
S315080047001A00204B1A777B68180000F02FF903006F
S315080047109AB21C4B1A8024E07B68180000F056F900
S31508004720021C184B9A611CE07B68180000F02EF8F2
S31508004730021C144B5A6014E07B68180000F086F9D6
S31508004740021C104B1A620CE07B6802220E2118002C
S3150800475000F0B2F9030019000A4B2422995400E02C
S31508004760C046C046BD4602B080BDC04611F1FE181F
S3150800477000E5FE180BBFFE18E41DF0180003F00C48
S315080047801102FF0C880400201404002080B584B0B0
S3150800479000AF78607B6801220121180001F08DF9CD
S315080047A003001800FCF7B4FD031CFB60F868FEF76D
S315080047B095FD084A084BFDF7F1FD02000B001000B5
S315080047C01900FEF7D3FD031CFB60FB68181CBD46E9
S315080047D004B080BD9A9999999999D93F80B584B0C2
S315080047E000AF78607B6802220121180001F065F9A4
S315080047F003001800FCF78CFD031CFB60F868FEF745
S315080048006DFD00220B4BFDF7C9FD02000B001000E1
S315080048101900094A094BFEF7A7F802000B00100019
S315080048201900FEF7A3FD031CFB60FB68181CBD46B8
S3150800483004B080BD0000B03F728A8EE4F23F1F408C
S3150800484080B584B000AF78607B6803220121180028
S3150800485001F033F903001800FCF75AFD031CFB604E
S31508004860F868FEF73BFD00220B4BFDF797FD0200AB
S315080048700B0010001900094A094BFEF775F80200EB
S315080048800B0010001900FEF771FD031CFB60FB68A6
S31508004890181CBD4604B080BD0000B03F728A8EE485
S315080048A0F23F1F4080B584B000AF78607B68022273
S315080048B00121180001F001F903001800FCF728FD92
S315080048C0031CFB60F868FEF709FD00220B4BFDF799
S315080048D065FD02000B0010001900094A094BFEF796
S315080048E043F802000B0010001900FEF73FFD031CF9
S315080048F0FB60FB68181CBD4604B080BD0000B03FD5
S31508004900728A8EE4F23F1F4080B584B000AF7860AB
S315080049107B6803220121180001F0CFF80300180074
S31508004920FCF7F6FC031CFB60F868FEF7D7FC0022D0
S315080049300B4BFDF733FD02000B0010001900094A66
S31508004940094BFEF711F802000B0010001900FEF7DC
S315080049500DFD031CFB60FB68181CBD4604B080BD3A
S315080049600000B03F728A8EE4F23F1F4090B585B0D2
S3150800497000AF786008243B1902220021180011F0C4
S31508004980A5FC3B1978680222012101F05AF83B1967
S3150800499000220221180001F090F80300FB60F86875
S315080049A0FEF74AFC0022084BFDF7F8FC02000B0054
S315080049B010001900FEF704FC0300FB60FB681800F2
S315080049C0BD4605B090BDC0460000703F90B585B0A5
S315080049D000AF786008243B1902220021180011F064
S315080049E075FC3B1978680122002101F02AF83B1969
S315080049F000220221180001F060F803001800FCF7F5
S31508004A0087FC031CFB60F868FEF768FC00220C4B69
S31508004A10FDF7C4FC02000B0010001900094A0A4BF6
S31508004A20FDF7BCFC02000B0010001900FEF79EFC07
S31508004A30031CFB60FB68181CBD4605B090BDC0464C
S31508004A400000503FCDCCCCCCCCCC4C4090B585B0FA
S31508004A5000AF786008243B1904220021180011F0E1
S31508004A6035FC3B1978680322002100F0EAFF3B1960
S31508004A7000220421180001F020F803001800FCF7B2
S31508004A8047FC031CFB60F868FEF728FC084A094B3C
S31508004A90FDF784FC02000B0010001900FEF766FC07
S31508004AA0031CFB60FB68181CBD4605B090BDC046DC
S31508004AB09A9999999999A93FF0B585B000AF786008
S31508004AC008001100FB1C021C1A70BB1C0A1C1A7079
S31508004AD0FB1C1A78BB1C1B78D318402B03DCBB1CA9
S31508004AE01B78082B01D9002337E00F203B1800223A
S31508004AF01A700E243B1900221A70FB1C1B78DB085F
S31508004B00DAB20D257B1906218A1A1A700C26BB19EA
S31508004B10FA1C127807210A401A707B191B787A68E2
S31508004B20D3181B781A00BB191B781A411300DAB27E
S31508004B300B257B1901210A401A707B191A783B1933
S31508004B401B789A4013005AB23B181B785BB2134382
S31508004B505AB23B181A703B181B781800BD4605B0A8
S31508004B60F0BD000080B500AF044B1B6A181CFBF7AC
S31508004B70F5FC03001800BD4680BDC0468804002029
S31508004B8080B500AF044B28220021180011F09EFBC7
S31508004B90C046BD4680BDC0468804002080B584B0A6
S31508004BA000AF78600F23FB1800221A700B4A7B6847
S31508004BB01100180000F014F8031E07D1074BDA7825
S31508004BC0064BDB881900100000F06AF80F23FB1863
S31508004BD01B781800BD4604B080BDC046B40400204A
S31508004BE090B585B000AF786039600E203B1800227A
S31508004BF01A807B681A783B681A707B6801331A78C2
S31508004C003B685A707B6802331A783B689A707B68EF
S31508004C1003331A783B68DA707B6804331A783B6882
S31508004C201A717B68591D3B681B791A0004003B18EA
S31508004C30180011F047FC3B191B88180000F026FFE6
S31508004C4003001A003B68DA807B6807331B781A0072
S31508004C503B681A817B6808331A783B689A723B6806
S31508004C601B787E2B03D13B689B7A7F2B05D00A4B9A
S31508004C70180000F0C5FE01230AE03B681B89082BD3
S31508004C8005D0064B180000F0BBFE012300E0002308
S31508004C901800BD4605B090BD20A0010840A0010837
S31508004CA0F0B5BBB000AF0300E7203A181370E42351
S31508004CB0FA180B1C13803B181B781C2B01D900F023
S31508004CC097FB9A00D54BD3181B689F46E4243B19DB
S31508004CD01B889BB2D822B9180B600023DC217918EF
S31508004CE00B60CF4BBA181168526819605A60CC4BE2
S31508004CF0CC480122190000F0C3FD3B191A88CA4B9B
S31508004D001100180000F07CFE7BE3E4243B191B88A5
S31508004D109BB2D022B9180B600023D42179180B60F6
S31508004D20C24BBA181168526819605A60BF4BC0481E
S31508004D300122190000F0A4FD3B191A88BD4B110089
S31508004D40180000F05DFE5CE3E4243B191B889BB267
S31508004D50C822B9180B600023CC2179180B60B64B12
S31508004D60BA181168526819605A60B34BB3480122E1
S31508004D70190000F085FD3B191A88B14B110018007F
S31508004D8000F03EFE3DE3E4243B191B889BB2C0229B
S31508004D90B9180B600023C42179180B60A94BBA18FF
S31508004DA01168526819605A60A64BA7480122190073
S31508004DB000F066FD3B191A88A44B1100180000F094
S31508004DC01FFE1EE3E4243B191B889BB2B822B918C0
S31508004DD00B600023BC2179180B609D4BBA1811682B
S31508004DE0526819605A609A4B9A480122190000F0D5
S31508004DF047FD3B191A88984B1100180000F000FE71
S31508004E00FFE2E4243B191B889BB2B022B9180B6059
S31508004E100023B42179180B60904BBA1811685268B0
S31508004E2019605A608D4B8E480122190000F028FD42
S31508004E303B191A888B4B1100180000F0E1FDE0E2DF
S31508004E40E4243B191B889BB2A822B9180B600023DF
S31508004E50AC2179180B60844BBA181168526819602E
S31508004E605A60814B81480122190000F009FD3B195F
S31508004E701A887F4B1100180000F0C2FDC1E2E42435
S31508004E803B191B889BB2A022B9180B600023A421EA
S31508004E9079180B60774BBA181168526819605A600E
S31508004EA0744B75480122190000F0EAFC3B191A8870
S31508004EB0724B1100180000F0A3FDA2E2E4243B198E
S31508004EC01B889BB29822B9180B6000239C2179187D
S31508004ED00B606B4BBA181168526819605A60684BB8
S31508004EE068480122190000F0CBFC3B191A88664B6A
S31508004EF01100180000F084FD83E2E4243B191B88A6
S31508004F009BB29022B9180B600023942179180B6084
S31508004F105E4BBA181168526819605A605B4B5C4858
S31508004F200122190000F0ACFC3B191A88594B1100F4
S31508004F30180000F065FD64E2E4243B191B889BB267
S31508004F408822B9180B6000238C2179180B60524B04
S31508004F50BA181168526819605A604F4B4F480122B7
S31508004F60190000F08DFC3B191A884D4B11001800EA
S31508004F7000F046FD45E2E4243B191B889BB28022DB
S31508004F80B9180B600023842179180B60454BBA18B1
S31508004F901168526819605A60424B43480122190049
S31508004FA000F06EFC3B191A88404B1100180000F0FF
S31508004FB027FD26E2E4243B191B889BB2BB67002326
S31508004FC0FB673B4BB96FFA6F19605A60384B394823
S31508004FD00122190000F054FC3B191A88364B1100BF
S31508004FE0180000F00DFD0CE2E4243B191B889BB267
S31508004FF03B6700237B67314B396F7A6F19605A60BC
S315080050002E4B2F480122190000F03AFC3B191A884A
S315080050102C4B1100180000F0F3FCF2E150A7010830
S3150800502008000020002807085CA0010810000020DE
S31508005030003007088CA0010848040020003807083B
S31508005040BCA001085004002000400708ECA0010895
S3150800505018000020004807081CA1010820000020AD
S315080050600050070848A10108280000200058070832
S315080050707CA101083000002000600708A8A10108EB
S315080050803800002000680708D8A101085804002045
S315080050900070070808A201084000002000780708E9
S315080050A034A20108480000200080070864A201080D
S315080050B0500000200088070894A201085800002024
S315080050C000900708C0A20108E4243B191B889BB27C
S315080050D0BB660023FB66CD4BB96EFA6E19605A6043
S315080050E0CA4BCB480122190000F0CAFB3B191A88A3
S315080050F0C84B1100180000F083FC82E1E4243B1938
S315080051001B889BB23B6600237B66C34B396E7A6E5F
S3150800511019605A60C04BC1480122190000F0B0FB63
S315080051203B191A88BE4B1100180000F069FC68E1AB
S31508005130E4243B191B889BB2BB650023FB65B94B6E
S31508005140B96DFA6D19605A60B64BB7480122190055
S3150800515000F096FB3B191A88B44B1100180000F0B2
S315080051604FFC4EE1E4243B191B889BB23B650023A8
S315080051707B65AF4B396D7A6D19605A60AC4BAD489B
S315080051800122190000F07CFB3B191A88AA4B110072
S31508005190180000F035FC34E1E4243B191B889BB267
S315080051A0BB640023FB64A54BB96CFA6C19605A60A2
S315080051B0A24BA3480122190000F062FB3B191A888A
S315080051C0A04B1100180000F01BFC1AE1E4243B195F
S315080051D01B889BB23B6400237B649B4B396C7A6CBF
S315080051E019605A60984B99480122190000F048FB4B
S315080051F03B191A88964B1100180000F001FC00E1D3
S31508005200E4243B191B889BB2BB630023FB63914BC9
S31508005210B96BFA6B19605A608E4B8F4801221900D8
S3150800522000F02EFB3B191A888C4B1100180000F071
S31508005230E7FBE6E0E4243B191B889BB23B630023AB
S315080052407B63874B396B7A6B19605A60844B854848
S315080052500122190000F014FB3B191A88824B110031
S31508005260180000F0CDFBCCE0E4243B191B889BB268
S31508005270BB620023FB627D4BB96AFA6A19605A6001
S315080052807A4B7B480122190000F0FAFA3B191A8872
S31508005290784B1100180000F0B3FBB2E0E4243B1988
S315080052A01B889BB23B6200237B62734B396A7A6A1E
S315080052B019605A60704B71480122190000F0E0FA33
S315080052C03B191A886E4B1100180000F099FB98E0FC
S315080052D0E4243B191B889BB2BB610023FB61694B25
S315080052E0B969FA6919605A60664B6748012219005C
S315080052F000F0C6FA3B191A88644B1100180000F032
S315080053007FFB7EE0E4243B191B889BB23B610023AC
S315080053107B615F4B39697A6919605A605C4B5D48F5
S315080053200122190000F0ACFA3B191A885A4B1100F1
S31508005330180000F065FB64E0E4243B191B889BB267
S31508005340BB600023FB60554BB968FA6819605A6060
S31508005350524B53480122190000F092FA3B191A8859
S31508005360504B1100180000F04BFB4AE0E4243B19AF
S315080053701B889BB23B6000237B604B4B39687A687D
S3150800538019605A60484B1A685B6810001900FBF7E9
S31508005390AFF9464A464BFDF701F802000B004549AE
S315080053A00A604B60404B44480122190000F068FA35
S315080053B03B191A88414B1100180000F021FB20E028
S315080053C0E426BB191B889BB21C0000231D003C4B1E
S315080053D01C605D603A4B3B480122190000F050FA08
S315080053E0BB191A88384B1100180000F009FB08E0B1
S315080053F0E723FB181A78354B1100180010F0C6FE83
S31508005400C046C046BD463BB0F0BDC0466000002061
S3150800541000980708F0A201086004002000A0070809
S3150800542020A301086800002000A807084CA301086B
S315080054307000002000B007087CA30108780000204F
S3150800544000B80708ACA301088000002000C00708C0
S31508005450D8A301088800002000C8070808A4010886
S315080054606804002000D0070838A40108900000202E
S3150800547000D8070864A401089800002000E007087F
S3150800548094A401081804002000000708C4A4010811
S315080054902004002000080708F8A4010828040020B2
S315080054A0001007082CA5010838040020D26F5F07F2
S315080054B0CE19913F300400200018070864A501089A
S315080054C00000002000200708A0A50108DCA50108A7
S315080054D080B500AF094B1B78002B09D1084B180083
S315080054E000F014F80749084B0122180006F062FB81
S315080054F0024B01221A70C046BD4680BDD804002062
